{
  "contractName": "Decentradit",
  "abi": [
    {
      "anonymous": false,
      "inputs": [
        {
          "indexed": true,
          "internalType": "bytes32",
          "name": "categoryId",
          "type": "bytes32"
        },
        {
          "indexed": false,
          "internalType": "string",
          "name": "category",
          "type": "string"
        }
      ],
      "name": "CategoryCreated",
      "type": "event"
    },
    {
      "anonymous": false,
      "inputs": [
        {
          "indexed": true,
          "internalType": "bytes32",
          "name": "contentId",
          "type": "bytes32"
        },
        {
          "indexed": false,
          "internalType": "string",
          "name": "contentUri",
          "type": "string"
        }
      ],
      "name": "ContentAdded",
      "type": "event"
    },
    {
      "anonymous": false,
      "inputs": [
        {
          "indexed": true,
          "internalType": "bytes32",
          "name": "postId",
          "type": "bytes32"
        },
        {
          "indexed": true,
          "internalType": "address",
          "name": "postOwner",
          "type": "address"
        },
        {
          "indexed": true,
          "internalType": "bytes32",
          "name": "parentId",
          "type": "bytes32"
        },
        {
          "indexed": false,
          "internalType": "bytes32",
          "name": "contentId",
          "type": "bytes32"
        },
        {
          "indexed": false,
          "internalType": "bytes32",
          "name": "categoryId",
          "type": "bytes32"
        }
      ],
      "name": "PostCreated",
      "type": "event"
    },
    {
      "anonymous": false,
      "inputs": [
        {
          "indexed": true,
          "internalType": "bytes32",
          "name": "postId",
          "type": "bytes32"
        },
        {
          "indexed": true,
          "internalType": "address",
          "name": "postOwner",
          "type": "address"
        },
        {
          "indexed": true,
          "internalType": "address",
          "name": "voter",
          "type": "address"
        },
        {
          "indexed": false,
          "internalType": "uint80",
          "name": "reputationPostOwner",
          "type": "uint80"
        },
        {
          "indexed": false,
          "internalType": "uint80",
          "name": "reputationVoter",
          "type": "uint80"
        },
        {
          "indexed": false,
          "internalType": "int40",
          "name": "postVotes",
          "type": "int40"
        },
        {
          "indexed": false,
          "internalType": "bool",
          "name": "up",
          "type": "bool"
        },
        {
          "indexed": false,
          "internalType": "uint8",
          "name": "reputationAmount",
          "type": "uint8"
        }
      ],
      "name": "Voted",
      "type": "event"
    },
    {
      "constant": false,
      "inputs": [
        {
          "internalType": "bytes32",
          "name": "_parentId",
          "type": "bytes32"
        },
        {
          "internalType": "string",
          "name": "_contentUri",
          "type": "string"
        },
        {
          "internalType": "bytes32",
          "name": "_categoryId",
          "type": "bytes32"
        }
      ],
      "name": "createPost",
      "outputs": [],
      "payable": false,
      "stateMutability": "nonpayable",
      "type": "function"
    },
    {
      "constant": false,
      "inputs": [
        {
          "internalType": "bytes32",
          "name": "_postId",
          "type": "bytes32"
        },
        {
          "internalType": "uint8",
          "name": "_reputationAdded",
          "type": "uint8"
        }
      ],
      "name": "voteUp",
      "outputs": [],
      "payable": false,
      "stateMutability": "nonpayable",
      "type": "function"
    },
    {
      "constant": false,
      "inputs": [
        {
          "internalType": "bytes32",
          "name": "_postId",
          "type": "bytes32"
        },
        {
          "internalType": "uint8",
          "name": "_reputationTaken",
          "type": "uint8"
        }
      ],
      "name": "voteDown",
      "outputs": [],
      "payable": false,
      "stateMutability": "nonpayable",
      "type": "function"
    },
    {
      "constant": false,
      "inputs": [
        {
          "internalType": "string",
          "name": "_category",
          "type": "string"
        }
      ],
      "name": "addCategory",
      "outputs": [],
      "payable": false,
      "stateMutability": "nonpayable",
      "type": "function"
    },
    {
      "constant": true,
      "inputs": [
        {
          "internalType": "bytes32",
          "name": "_contentId",
          "type": "bytes32"
        }
      ],
      "name": "getContent",
      "outputs": [
        {
          "internalType": "string",
          "name": "",
          "type": "string"
        }
      ],
      "payable": false,
      "stateMutability": "view",
      "type": "function"
    },
    {
      "constant": true,
      "inputs": [
        {
          "internalType": "bytes32",
          "name": "_categoryId",
          "type": "bytes32"
        }
      ],
      "name": "getCategory",
      "outputs": [
        {
          "internalType": "string",
          "name": "",
          "type": "string"
        }
      ],
      "payable": false,
      "stateMutability": "view",
      "type": "function"
    },
    {
      "constant": true,
      "inputs": [
        {
          "internalType": "address",
          "name": "_address",
          "type": "address"
        },
        {
          "internalType": "bytes32",
          "name": "_categoryID",
          "type": "bytes32"
        }
      ],
      "name": "getReputation",
      "outputs": [
        {
          "internalType": "uint80",
          "name": "",
          "type": "uint80"
        }
      ],
      "payable": false,
      "stateMutability": "view",
      "type": "function"
    },
    {
      "constant": true,
      "inputs": [
        {
          "internalType": "bytes32",
          "name": "_postId",
          "type": "bytes32"
        }
      ],
      "name": "getPost",
      "outputs": [
        {
          "internalType": "address",
          "name": "",
          "type": "address"
        },
        {
          "internalType": "bytes32",
          "name": "",
          "type": "bytes32"
        },
        {
          "internalType": "bytes32",
          "name": "",
          "type": "bytes32"
        },
        {
          "internalType": "int72",
          "name": "",
          "type": "int72"
        },
        {
          "internalType": "bytes32",
          "name": "",
          "type": "bytes32"
        }
      ],
      "payable": false,
      "stateMutability": "view",
      "type": "function"
    }
  ],
  "bytecode": "0x608060405234801561001057600080fd5b506117c4806100206000396000f3fe608060405234801561001057600080fd5b50600436106100885760003560e01c806393e43bbe1161005b57806393e43bbe146102e1578063b2fae27214610371578063e1957bf3146103eb578063f2287b3e1461042657610088565b80632e0dcbf71461008d57806333032b0914610106578063473b084c146101935780635cc150011461023a575b600080fd5b610104600480360360208110156100a357600080fd5b81019080803590602001906401000000008111156100c057600080fd5b8201836020820111156100d257600080fd5b803590602001918460018302840111640100000000831117156100f457600080fd5b9091929391929390505050610461565b005b6101916004803603606081101561011c57600080fd5b81019080803590602001909291908035906020019064010000000081111561014357600080fd5b82018360208201111561015557600080fd5b8035906020019184600183028401116401000000008311171561017757600080fd5b909192939192939080359060200190929190505050610544565b005b6101bf600480360360208110156101a957600080fd5b8101908080359060200190929190505050610798565b6040518080602001828103825283818151815260200191508051906020019080838360005b838110156101ff5780820151818401526020810190506101e4565b50505050905090810190601f16801561022c5780820380516001836020036101000a031916815260200191505b509250505060405180910390f35b6102666004803603602081101561025057600080fd5b810190808035906020019092919050505061084d565b6040518080602001828103825283818151815260200191508051906020019080838360005b838110156102a657808201518184015260208101905061028b565b50505050905090810190601f1680156102d35780820380516001836020036101000a031916815260200191505b509250505060405180910390f35b61030d600480360360208110156102f757600080fd5b8101908080359060200190929190505050610902565b604051808673ffffffffffffffffffffffffffffffffffffffff1673ffffffffffffffffffffffffffffffffffffffff1681526020018581526020018481526020018360080b60080b81526020018281526020019550505050505060405180910390f35b6103bd6004803603604081101561038757600080fd5b81019080803573ffffffffffffffffffffffffffffffffffffffff169060200190929190803590602001909291905050506109c3565b604051808269ffffffffffffffffffff1669ffffffffffffffffffff16815260200191505060405180910390f35b6104246004803603604081101561040157600080fd5b8101908080359060200190929190803560ff169060200190929190505050610a33565b005b61045f6004803603604081101561043c57600080fd5b8101908080359060200190929190803560ff169060200190929190505050611023565b005b6000828260405160200180806020018281038252848482818152602001925080828437600081840152601f19601f820116905080830192505050935050505060405160208183030381529060405280519060200120905082826001600084815260200190815260200160002091906104da929190611658565b50807f42588c2617ffb1b380decf15f2134bd59bb002295bda52fe6e5bf92fc504d249848460405180806020018281038252848482818152602001925080828437600081840152601f19601f820116905080830192505050935050505060405180910390a2505050565b60003390506000848460405160200180806020018281038252848482818152602001925080828437600081840152601f19601f82011690508083019250505093505050506040516020818303038152906040528051906020012090506000828783604051602001808473ffffffffffffffffffffffffffffffffffffffff1673ffffffffffffffffffffffffffffffffffffffff1660601b81526014018381526020018281526020019350505050604051602081830303815290604052805190602001209050858560026000858152602001908152602001600020919061062c929190611658565b50826003600083815260200190815260200160002060000160006101000a81548173ffffffffffffffffffffffffffffffffffffffff021916908373ffffffffffffffffffffffffffffffffffffffff160217905550866003600083815260200190815260200160002060010181905550816003600083815260200190815260200160002060020181905550836003600083815260200190815260200160002060040181905550817ffb281bb05c5ef4b3a5f374fffc0b351fe69873776a9d6c289682e1929cb4f080878760405180806020018281038252848482818152602001925080828437600081840152601f19601f820116905080830192505050935050505060405180910390a2868373ffffffffffffffffffffffffffffffffffffffff16827fdd56be40fa15d802b8ddf46fb1480b3bef291828e21d8c168f8f96368716d7e48588604051808381526020018281526020019250505060405180910390a450505050505050565b6060600160008381526020019081526020016000208054600181600116156101000203166002900480601f0160208091040260200160405190810160405280929190818152602001828054600181600116156101000203166002900480156108415780601f1061081657610100808354040283529160200191610841565b820191906000526020600020905b81548152906001019060200180831161082457829003601f168201915b50505050509050919050565b6060600260008381526020019081526020016000208054600181600116156101000203166002900480601f0160208091040260200160405190810160405280929190818152602001828054600181600116156101000203166002900480156108f65780601f106108cb576101008083540402835291602001916108f6565b820191906000526020600020905b8154815290600101906020018083116108d957829003601f168201915b50505050509050919050565b60008060008060006003600087815260200190815260200160002060000160009054906101000a900473ffffffffffffffffffffffffffffffffffffffff1660036000888152602001908152602001600020600101546003600089815260200190815260200160002060020154600360008a815260200190815260200160002060030160009054906101000a900460040b600360008b8152602001908152602001600020600401548160040b91509450945094509450945091939590929450565b60008060008473ffffffffffffffffffffffffffffffffffffffff1673ffffffffffffffffffffffffffffffffffffffff168152602001908152602001600020600083815260200190815260200160002060009054906101000a900469ffffffffffffffffffff16905092915050565b600033905060006003600085815260200190815260200160002060040154905060006003600086815260200190815260200160002060000160009054906101000a900473ffffffffffffffffffffffffffffffffffffffff16905060001515600460008573ffffffffffffffffffffffffffffffffffffffff1673ffffffffffffffffffffffffffffffffffffffff168152602001908152602001600020600087815260200190815260200160002060009054906101000a900460ff16151514610b48576040517f08c379a00000000000000000000000000000000000000000000000000000000081526004018080602001828103825260218152602001806117366021913960400191505060405180910390fd5b60011515610b57848487611580565b151514610baf576040517f08c379a00000000000000000000000000000000000000000000000000000000081526004018080602001828103825260398152602001806117576039913960400191505060405180910390fd5b60016003600087815260200190815260200160002060030160009054906101000a900460040b60040b1215610c1d5760006003600087815260200190815260200160002060030160006101000a81548164ffffffffff021916908360040b64ffffffffff1602179055610c6a565b60016003600087815260200190815260200160002060030160008282829054906101000a900460040b0392506101000a81548164ffffffffff021916908360040b64ffffffffff16021790555b508360ff166000808373ffffffffffffffffffffffffffffffffffffffff1673ffffffffffffffffffffffffffffffffffffffff168152602001908152602001600020600084815260200190815260200160002060009054906101000a900469ffffffffffffffffffff1669ffffffffffffffffffff161015610d665760008060008373ffffffffffffffffffffffffffffffffffffffff1673ffffffffffffffffffffffffffffffffffffffff168152602001908152602001600020600084815260200190815260200160002060006101000a81548169ffffffffffffffffffff021916908369ffffffffffffffffffff1602179055610dfe565b8360ff166000808373ffffffffffffffffffffffffffffffffffffffff1673ffffffffffffffffffffffffffffffffffffffff168152602001908152602001600020600084815260200190815260200160002060008282829054906101000a900469ffffffffffffffffffff160392506101000a81548169ffffffffffffffffffff021916908369ffffffffffffffffffff16021790555b506001600460008573ffffffffffffffffffffffffffffffffffffffff1673ffffffffffffffffffffffffffffffffffffffff168152602001908152602001600020600087815260200190815260200160002060006101000a81548160ff0219169083151502179055508273ffffffffffffffffffffffffffffffffffffffff168173ffffffffffffffffffffffffffffffffffffffff16867f01d21e353645a36d22513edbfe86f2d524130c25320a11ed375056ea54b427af6000808673ffffffffffffffffffffffffffffffffffffffff1673ffffffffffffffffffffffffffffffffffffffff168152602001908152602001600020600087815260200190815260200160002060009054906101000a900469ffffffffffffffffffff166000808973ffffffffffffffffffffffffffffffffffffffff1673ffffffffffffffffffffffffffffffffffffffff168152602001908152602001600020600088815260200190815260200160002060009054906101000a900469ffffffffffffffffffff16600360008c815260200190815260200160002060030160009054906101000a900460040b60008b604051808669ffffffffffffffffffff1669ffffffffffffffffffff1681526020018569ffffffffffffffffffff1669ffffffffffffffffffff1681526020018460040b60040b8152602001831515151581526020018260ff1660ff1681526020019550505050505060405180910390a45050505050565b600033905060006003600085815260200190815260200160002060040154905060006003600086815260200190815260200160002060000160009054906101000a900473ffffffffffffffffffffffffffffffffffffffff1690508273ffffffffffffffffffffffffffffffffffffffff166003600087815260200190815260200160002060000160009054906101000a900473ffffffffffffffffffffffffffffffffffffffff1673ffffffffffffffffffffffffffffffffffffffff161415611156576040517f08c379a000000000000000000000000000000000000000000000000000000000815260040180806020018281038252601e8152602001807f796f752063616e6e6f7420766f746520796f7572206f776e20706f737473000081525060200191505060405180910390fd5b60001515600460008573ffffffffffffffffffffffffffffffffffffffff1673ffffffffffffffffffffffffffffffffffffffff168152602001908152602001600020600087815260200190815260200160002060009054906101000a900460ff16151514611210576040517f08c379a00000000000000000000000000000000000000000000000000000000081526004018080602001828103825260218152602001806117366021913960400191505060405180910390fd5b6001151561121f848487611580565b151514611277576040517f08c379a00000000000000000000000000000000000000000000000000000000081526004018080602001828103825260388152602001806116fe6038913960400191505060405180910390fd5b60016003600087815260200190815260200160002060030160008282829054906101000a900460040b0192506101000a81548164ffffffffff021916908360040b64ffffffffff1602179055508360ff166000808373ffffffffffffffffffffffffffffffffffffffff1673ffffffffffffffffffffffffffffffffffffffff168152602001908152602001600020600084815260200190815260200160002060008282829054906101000a900469ffffffffffffffffffff160192506101000a81548169ffffffffffffffffffff021916908369ffffffffffffffffffff1602179055506001600460008573ffffffffffffffffffffffffffffffffffffffff1673ffffffffffffffffffffffffffffffffffffffff168152602001908152602001600020600087815260200190815260200160002060006101000a81548160ff0219169083151502179055508273ffffffffffffffffffffffffffffffffffffffff168173ffffffffffffffffffffffffffffffffffffffff16867f01d21e353645a36d22513edbfe86f2d524130c25320a11ed375056ea54b427af6000808673ffffffffffffffffffffffffffffffffffffffff1673ffffffffffffffffffffffffffffffffffffffff168152602001908152602001600020600087815260200190815260200160002060009054906101000a900469ffffffffffffffffffff166000808973ffffffffffffffffffffffffffffffffffffffff1673ffffffffffffffffffffffffffffffffffffffff168152602001908152602001600020600088815260200190815260200160002060009054906101000a900469ffffffffffffffffffff16600360008c815260200190815260200160002060030160009054906101000a900460040b60018b604051808669ffffffffffffffffffff1669ffffffffffffffffffff1681526020018569ffffffffffffffffffff1669ffffffffffffffffffff1681526020018460040b60040b8152602001831515151581526020018260ff1660ff1681526020019550505050505060405180910390a45050505050565b6000806000808673ffffffffffffffffffffffffffffffffffffffff1673ffffffffffffffffffffffffffffffffffffffff168152602001908152602001600020600085815260200190815260200160002060009054906101000a900469ffffffffffffffffffff16905060028169ffffffffffffffffffff1610156116215760018360ff161461161557600091508161161b565b60019150815b50611650565b8069ffffffffffffffffffff168360ff1660020a60ff16111561164857600091508161164e565b60019150815b505b509392505050565b828054600181600116156101000203166002900490600052602060002090601f016020900481019282601f1061169957803560ff19168380011785556116c7565b828001600101855582156116c7579182015b828111156116c65782358255916020019190600101906116ab565b5b5090506116d491906116d8565b5090565b6116fa91905b808211156116f65760008160009055506001016116de565b5090565b9056fe5468697320616464726573732063616e6e6f7420616464207468697320616d6f756e74206f662072657075746174696f6e20706f696e747353656e64657220616c726561647920766f74656420696e207468697320706f73745468697320616464726573732063616e6e6f742074616b65207468697320616d6f756e74206f662072657075746174696f6e20706f696e7473a265627a7a7231582029fcedefda0de2dec0483f13078b8da3bb0158406a74c7a937ef4a8a1c789c1764736f6c63430005100032",
  "source": "// SPDX-License-Identifier: MIT\npragma solidity >=0.4.0;\n\ncontract Decentradit {\n\n    event PostCreated (bytes32 indexed postId, address indexed postOwner, bytes32 indexed parentId, bytes32 contentId, bytes32 categoryId);\n    event ContentAdded (bytes32 indexed contentId, string contentUri);\n    event CategoryCreated (bytes32 indexed categoryId, string category);\n    event Voted (bytes32 indexed postId, address indexed postOwner, address indexed voter, uint80 reputationPostOwner, uint80 reputationVoter, int40 postVotes, bool up, uint8 reputationAmount);\n\n    struct post {\n        address postOwner;\n        bytes32 parentPost;\n        bytes32 contentId;\n        int40 votes;\n        bytes32 categoryId;\n    }\n\n    mapping  (address => mapping (bytes32 => uint80)) reputationRegistry;\n    mapping (bytes32 => string) categoryRegistry;\n    mapping (bytes32 => string) contentRegistry;\n    mapping (bytes32 => post) postRegistry;\n    mapping (address => mapping (bytes32 => bool)) voteRegistry;\n\n    function createPost(bytes32 _parentId, string calldata _contentUri, bytes32 _categoryId) external {\n        address _owner = msg.sender;\n        bytes32 _contentId = keccak256(abi.encode(_contentUri));\n        bytes32 _postId = keccak256(abi.encodePacked(_owner,_parentId, _contentId));\n        contentRegistry[_contentId] = _contentUri;\n        postRegistry[_postId].postOwner = _owner;\n        postRegistry[_postId].parentPost = _parentId;\n        postRegistry[_postId].contentId = _contentId;\n        postRegistry[_postId].categoryId = _categoryId;\n        emit ContentAdded(_contentId, _contentUri);\n        emit PostCreated (_postId, _owner,_parentId,_contentId,_categoryId);\n    }\n\n    function voteUp(bytes32 _postId, uint8 _reputationAdded) external {\n        address _voter = msg.sender;\n        bytes32 _category = postRegistry[_postId].categoryId;\n        address _contributor = postRegistry[_postId].postOwner;\n        require (postRegistry[_postId].postOwner != _voter, \"you cannot vote your own posts\");\n        require (voteRegistry[_voter][_postId] == false, \"Sender already voted in this post\");\n        require (validateReputationChange(_voter,_category,_reputationAdded)==true, \"This address cannot add this amount of reputation points\");\n        postRegistry[_postId].votes += 1;\n        reputationRegistry[_contributor][_category] += _reputationAdded;\n        voteRegistry[_voter][_postId] = true;\n        emit Voted(_postId, _contributor, _voter, reputationRegistry[_contributor][_category], reputationRegistry[_voter][_category], postRegistry[_postId].votes, true, _reputationAdded);\n    }\n\n    function voteDown(bytes32 _postId, uint8 _reputationTaken) external {\n        address _voter = msg.sender;\n        bytes32 _category = postRegistry[_postId].categoryId;\n        address _contributor = postRegistry[_postId].postOwner;\n        require (voteRegistry[_voter][_postId] == false, \"Sender already voted in this post\");\n        require (validateReputationChange(_voter,_category,_reputationTaken)==true, \"This address cannot take this amount of reputation points\");\n        postRegistry[_postId].votes >= 1 ? postRegistry[_postId].votes -= 1: postRegistry[_postId].votes = 0;\n        reputationRegistry[_contributor][_category] >= _reputationTaken ? reputationRegistry[_contributor][_category] -= _reputationTaken: reputationRegistry[_contributor][_category] =0;\n        voteRegistry[_voter][_postId] = true;\n        emit Voted(_postId, _contributor, _voter, reputationRegistry[_contributor][_category], reputationRegistry[_voter][_category], postRegistry[_postId].votes, false, _reputationTaken);\n    }\n\n    function validateReputationChange(address _sender, bytes32 _categoryId, uint8 _reputationAdded) internal view returns (bool _result){\n        uint80 _reputation = reputationRegistry[_sender][_categoryId];\n        if (_reputation < 2 ) {\n            _reputationAdded == 1 ? _result = true: _result = false;\n        }\n        else {\n            2**_reputationAdded <= _reputation ? _result = true: _result = false;\n        }\n    }\n\n    function addCategory(string calldata _category) external {\n        bytes32 _categoryId = keccak256(abi.encode(_category));\n        categoryRegistry[_categoryId] = _category;\n        emit CategoryCreated(_categoryId, _category);\n    }\n    \n    function getContent(bytes32 _contentId) public view returns (string memory) {\n        return contentRegistry[_contentId];\n    }\n    \n    function getCategory(bytes32 _categoryId) public view returns(string memory) {   \n        return categoryRegistry[_categoryId];\n    }\n\n    function getReputation(address _address, bytes32 _categoryID) public view returns(uint80) {   \n        return reputationRegistry[_address][_categoryID];\n    }\n\n    function getPost(bytes32 _postId) public view returns(address, bytes32, bytes32, int72, bytes32) {   \n        return (\n            postRegistry[_postId].postOwner,\n            postRegistry[_postId].parentPost,\n            postRegistry[_postId].contentId,\n            postRegistry[_postId].votes,\n            postRegistry[_postId].categoryId);\n    }\n\n}",
  "sourcePath": "/Users/harukikondo/git/moralis-poll/Truffle/contracts/decentradit.sol",
  "compiler": {
    "name": "solc",
    "version": "0.5.16+commit.9c3226ce.Emscripten.clang"
  },
  "schemaVersion": "3.2.0",
  "updatedAt": "2022-03-27T13:11:45.802Z",
  "networkType": "ethereum",
  "devdoc": {
    "methods": {}
  },
  "userdoc": {
    "methods": {}
  }
}